:020000040800F2
:10000000309B0020FD1C0008990A00089B0A00088C
:100010009D0A00089F0A0008A10A000800000000CD
:10002000000000000000000000000000A30A00081B
:10003000A50A00080000000077AB0008E9420008AC
:10004000171D0008171D0008171D0008D5450008DA
:10005000171D0008171D0008171D0008171D0008B0
:10006000171D0008171D0008171D0008171D0008A0
:10007000171D0008171D0008171D0008171D000890
:10008000171D0008171D0008171D0008171D000880
:10009000171D0008171D0008171D0008171D000870
:1000A000171D0008171D0008171D0008171D000860
:1000B000171D0008171D0008171D0008171D000850
:1000C000171D0008171D0008171D0008171D000840
:1000D000171D0008A1440008171D0008910E000814
:1000E000171D0008171D0008171D0008171D000820
:1000F000171D0008171D0008171D0008171D000810
:10010000171D0008171D0008171D0008171D0008FF
:10011000171D0008171D0008171D0008171D0008EF
:10012000171D0008171D0008171D0008171D0008DF
:10013000171D0008171D0008171D0008171D0008CF
:10014000171D0008171D0008171D0008171D0008BF
:10015000171D0008171D0008171D0008171D0008AF
:10016000171D0008171D0008171D0008171D00089F
:10017000171D0008171D0008171D0008171D00088F
:10018000171D0008171D000800F002F800F073F8B2
:100190000AA090E8000C82448344AAF10107DA45E2
:1001A00001D100F068F8AFF2090EBAE80F0013F0C1
:1001B000010F18BFFB1A43F00103184724B50000D4
:1001C00044B500000A444FF0000C10F8013B13F056
:1001D000070408BF10F8014B1D1108BF10F8015BA0
:1001E000641E05D010F8016B641E01F8016BF9D193
:1001F00013F0080F1EBF10F8014BAD1C0C1B09D1EA
:100200006D1E58BF01F801CBFAD505E014F8016B5B
:1002100001F8016B6D1EF9D59142D6D370470000ED
:100220000023002400250026103A28BF78C1FBD8FF
:10023000520728BF30C148BF0B60704764290AF0DD
:100240000F8178290AF0488163290AF046837329CF
:100250000AF04B83002070471FB50AF0E5FC0AF056
:1002600057FC0400002000210AF0C8FC401C60601C
:100270001FBD10B510BD0AF026FC1146FFF7ECFFBC
:1002800000F0CDFA0AF056FC03B4FFF7F2FF03BC0E
:1002900004F0A8F892B0402101A80AF02DFA01F06C
:1002A0009AFCFAA00AF06CF8FE4D42F210762C1F70
:1002B00001F04FFBFB49012003F0C7F8F949012089
:1002C000091F03F03AF9A07800906378E278F6A16C
:1002D00001A80AF061F80C2301AA0021142001F002
:1002E000EEFB6B782A78F5A101A80AF055F81023E7
:1002F00001AA0121222001F0E2FB304604F047F878
:10030000D6E79EB040210BA80AF0F6F900271CADF5
:100310003B463A463946EC481B97009507F0B2F841
:10032000E04A1BAB083A02F10C010BA804F066FA94
:100330001CAA0021E44807F0FCF9E4A00AF020F828
:10034000DFF86083A8F10406DF48CDE900750022DC
:100350001DAB1146E03807F019FC0446D1490120D5
:1003600003F073F8CF490120091F03F0E6F8A078E5
:100370000DF11C0C2379227861788CE80F0098F835
:100380000130E27898F8021098F80000CDE90303F4
:10039000CDE9051270783278B1788DE807001B9AA4
:1003A000F378D0490BA8521C09F0F6FF1B9864287B
:1003B000CAD800231A461946C348009507F062F8C8
:1003C0001B990BA80A3104F0B9F91CAA0021BE48F8
:1003D00007F0AFF91B98401C1B90B5E71FB5002034
:1003E0000190044602904E25BFA009F0C9FF01F01C
:1003F000C1F801F007F906464E2822D04E2D23D130
:1004000003A800900023B0481A461946583807F050
:1004100039F83146BAA009F0B3FFAB4803AA00216E
:10042000583807F086F901A8354606552820641C7F
:1004300001F08CF8322003F0AAFF642001F086F866
:1004400002E04E2D00D04E25042C05D3954901A87D
:10045000091D0AF079F90024142003F098FFC8E779
:100460001CB501F01DF8A8A009F08AFF00F015FEE8
:100470008C4952200C3900F0C1FE00284ED1894829
:10048000093000F0D2FE8748093000F033FF854B79
:10049000042109335A1D602000F068FF81490420BF
:1004A000143100F0A5FF9E49042000F088FF0023CE
:1004B000854801AC1A4619465838009406F0E2FF08
:1004C000784809300178009143788278C17895A006
:1004D00009F056FF7C4801AA0021583807F029F995
:1004E0007048093004F0DAF96E4977480023052294
:1004F0000931E038009407F0CCFC0024282001F0FA
:1005000025F8322003F043FF642001F01FF8322069
:1005100003F03DFF641CE4B2042CEFD34FF47A7077
:1005200003F035FFA2E78AB000200290039087A075
:1005300009F026FF00F076FB09AC41F2883502A8ED
:1005400000F093FBF0B99DF809109DF80800CDE983
:1005500000019DF80B309DF80A2082A104A809F043
:100560001BFF002358481A4619462C38009406F001
:1005700089FF04A800F030FC534809AA00212C3858
:1005800007F0D7F8284603F002FFD8E70EB57AA0A7
:1005900009F0F6FE002402AD4FF484764A48334653
:1005A000002201218038CDE9004506F078F8C00727
:1005B000F4D03C49012002F048FF3A490120091FCC
:1005C00002F0BBFFEAE794B0402102A80AF094F8D9
:1005D0006FA009F0D5FE002712AECDE9007600220B
:1005E00013AB1146704807F0D1FA0400F5D0BDF8FE
:1005F0004C000028F1D06DA120460AF049F810B156
:10060000204604F015F800232F481A4619462C38C6
:10061000009606F037FF67A120460AF039F878B156
:100620000A25294602A804F0CBF864A102A80AF022
:100630002FF828B102A800F0CFFB6D1C6E2DF0D36F
:10064000214812AA00212C3807F073F85CA120463B
:100650000AF01EF8C0B15BA120460AF013F859A1B8
:1006600000200AF00FF80446C1788078CDE9000137
:100670006378227854A102A809F08EFE00231A465E
:10068000194611480096A5E0AFE000007461736B55
:100690003720697320637265617465206F6B0D0A82
:1006A000000000000C0000203230253032782F2569
:1006B0003032782F25303278000000002530327833
:1006C0003A25303278000000201D00207461736BE1
:1006D0003620697320637265617465206F6B0D0A43
:1006E000000000009CB600087461736B35206973CC
:1006F00020637265617465206F6B0D0A0000000055
:1007000025630D0A000000007461736B3420697367
:1007100020637265617465206F6B0D0A0000000034
:10072000A0020020636172645F6E756D6265726223
:1007300075663A253032582025303258202530321F
:100740005820253032580D0A000000007461736B88
:100750003320697320637265617465206F6B0D0AC5
:1007600000000000542D25642E25642D482D25649D
:100770002E25640A000000007461736B32206973D7
:1007800020637265617465206F6B0D0A00000000C4
:100790007461736B312069732063726561746520C5
:1007A0006F6B0D0A00000000101C002074696D655D
:1007B0000000000073686F77000000000A0000006E
:1007C000707700002D0000002563256325632563F5
:1007D0000A00000006F056FE092102A803F0CEFF31
:1007E00012AA00217C4806F0A4FF00237A481A468A
:1007F00019465838009606F045FEBDF84C202146B3
:1008000076A009F0BDFD744812AA0021583806F000
:1008100090FFBDF84C10204609F04CFFDDE68AB091
:1008200003F070FD4FF4A06001F088FA4FF4E1305E
:1008300003F0E0FD4FF4165000F0E2FA03F0BDFEC5
:1008400000F0ACFA09A805F088F900244FF0190867
:1008500009AD05946649CDF8088006944FF4807779
:10086000CDE9074506262346AFF2A522CDE9006172
:100870005F48CDE903745FA1C43807F0F2FE4FF082
:100880000C0A05945D4ACDF808A00694CDE9074509
:10089000CDE900624FF080090023AFF20F325748D4
:1008A000CDE9039456A1C43807F0DBFE0594564900
:1008B000CDF808800694CDE907450023AFF29932C0
:1008C000CDE900615048CDE9037450A1C43807F068
:1008D000C8FE0594DFF83CB1CDF808800694CDE958
:1008E00007450023AFF28742CDE90374CDE9006BE1
:1008F00049A1ABF1C40007F0B4FE0594CDF808A0FF
:100900000694CDE907450023AFF22F52CDE90394B9
:10091000CDE9006B42A10BF5806007F0A2FE0594C3
:10092000CDF8088006940BF5B161CDE907450023A9
:10093000AFF23162CDE90061CDE903743AA10BF267
:10094000C44007F08EFE0594CDF808A006940BF67F
:100950004C22CDE90745CDE900620023AFF2CB621E
:10096000CDE9039432A10BF6881007F07AFE09ABAB
:10097000202231A10BF64C4006F0EDFF09AB2022FE
:100980002FA10BF67C4006F0E6FF09AB20222FA139
:100990000BF6AC4006F0DFFF09AB00222EA10BF6F0
:1009A000DC4005F074FD09AA2DA10BF6045006F0F9
:1009B00028FC09AA2DA10BF5536006F022FC09AA18
:1009C0002DA1054806F01DFC09A805F021FA2DA06F
:1009D00009F0D6FCFEE70000201D00206D73673A89
:1009E0005B25735D2C6C656E5B25645D0D0A0000F4
:1009F000780300205461736B310000003C08002034
:100A00005461736B32000000000B00205461736B63
:100A100033000000C40F00205461736B34000000E9
:100A20005461736B350000005461736B3600000035
:100A30005461736B37000000675F71756575650001
:100A4000636172645F7175657565000069645F71EB
:100A500075657565000000006D79466C6167000082
:100A60007072696E745F6D7574657800626C655F35
:100A70006D75746578000000626565705F6D7574F2
:100A8000657800006E657665722072756E2E2E2E6A
:100A90002E2E2E2E0D0A00007047FEE7FEE7FEE721
:100AA000FEE77047704700000CB5002254490092E1
:100AB0000192086840F4803008604FF4A043086851
:100AC00000F4003001900098401C0090019810B98B
:100AD00000989842F3D10868800334D50120019032
:100AE00047484030026842F0805202604548026840
:100AF00042F44042026042480830026802600268E4
:100B000042F400420260026842F4A0520260031FF5
:100B10003D4A1A600A6842F080720A600A689201CF
:100B2000FCD53A4940F205720A60016821F00301E0
:100B30000160016841F0020101600168C1F38101B7
:100B40000229FAD10CBD01920CBD314810B50168E3
:100B500041F4700101602A48016841F0010101601F
:100B6000274A00210832116002682A4B1A400260AD
:100B7000031D294A1A60026822F48022026020487C
:100B80000C300160FFF790FF21494FF00060803981
:100B9000086010BD70B51A4D083528681F4B2049F4
:100BA00010F00C0004D05E10042803D0082803D0F5
:100BB0000B601BE00E6019E0114A121D1068C0F3B3
:100BC0008054106800F03F0014B1B6FBF0F001E073
:100BD000B3FBF0F013681268C3F388135843C2F3F1
:100BE0000142521C5200B0FBF2F0086028680C4A27
:100BF000C0F30310121D105C0A68C2400A6070BD89
:100C0000003802400070004008544007003C024099
:100C100088ED00E0FFFFF6FE103000240024F40011
:100C20003000002010B50121102001F04EFB584883
:100C3000202101240160047103214171002181718F
:100C4000C1710146534801F03DF95348C0F8944240
:100C500010BD4F4920220A6008710320487100200E
:100C60008871C8714B4801F02DB92DE9F0478046D5
:100C7000002426460120FFF7ECFF474D0020C5F871
:100C80009402122003F083FB4FF0010AC5F894A2EE
:100C90001E2003F05DFB0020FFF7DBFF4FF47A77A7
:100CA00009E00120641C03F053FBBC4203D34FF066
:100CB000FF30BDE8F087D5F814020028F1D10024F8
:100CC00008E00120641C03F043FB642C02D36FF0A6
:100CD0000100EEE7D5F814020028F2D0002408E065
:100CE0000120641C03F034FB642C02D36FF002007B
:100CF000DFE7D5F814020028F2D10027A94607251E
:100D0000002408E00120641C03F022FB642C02D3C1
:100D10006FF00300CDE7D9F814020028F2D02820A4
:100D200003F016FBD9F8140218B10AFA05F03043A3
:100D3000C6B2002408E00120641C03F009FB642C07
:100D400002D36FF00400B4E7D9F814020028F2D1FE
:100D50006D1ED5D508F8076000267F1C052FCEDB59
:100D6000642003F0F5FA98F8001098F8010098F85C
:100D70000220014498F803001044084498F8041035
:100D8000C0B2814201D0B01F93E7002091E700007C
:100D90004400002000100240000042421CB5012126
:100DA000084601F092FAC020009001208DF804005E
:100DB00000208DF8060003218DF80510054C8DF8F4
:100DC00007006946204601F07DF8C021204601F069
:100DD000DEF81CBD0000024070B50446484D09E035
:100DE0002846641C01F024FC8021284601F0B1FC57
:100DF0000028F9D0002C02D021780029F0D170BD54
:100E00002DE9F04106460121880401F07CFA012118
:100E1000042001F05AFA3B484FF44061002401607D
:100E200002210171C47103254571374F8471014658
:100E3000384601F047F807220A21384601F0B6F893
:100E400007220B21384601F0B1F830490C200E6022
:100E50008C80CC800C818C81294C4881204601F00B
:100E600050FB012240F22551204601F05AFC254951
:100E70002720091F08704D708D700120C87008462A
:100E800000F061FF2046BDE8F041012101F0AABB5E
:100E90002DE9FC41002404F0E2FE194E40F22557F2
:100EA0003946304601F055FC164D083D012815D154
:100EB000304601F0C1FBC1B223290AD0286840287E
:100EC00007D22868114A403A0244401C2860117039
:100ED00000E001243946304601F064FC04F0CAFE0B
:100EE000002C0BD001A800902868084982B200238A
:100EF0004039074806F0CDFF00202860BDE8FC819E
:100F00000048004054000020000802408C1D0020D2
:100F1000101C00202DE9F0410121042001F0D5F939
:100F20000121082001F0D1F9FE4C082000252060A5
:100F3000257103276771DFF8F083A571E5712146FC
:100F4000404600F0BFFF1420206001262671677123
:100F5000A571E5712146404600F0B4FF2760267177
:100F60006771A571E5712146404600F0ABFFEF487F
:100F7000C0F88062C0F88462C0F88862BDE8F08181
:100F80002DE9F04700250724E84F8246A9460126AF
:100F900006FA04F818EA0A0F02D0C7F8886201E0DE
:100FA000C7F88892C7F88492012003F0D1F9C7F8F6
:100FB0008462012003F0CCF9D7F80C0210B148EAA2
:100FC0000500C5B2641EE3D52846BDE8F087D7E723
:100FD0000020D5E770B5D54C0D460021C4F880122D
:100FE0007E2101EA400004F52074FFF7C9FF28467E
:100FF000FFF7C6FF0120206070BD10B5CB4C00216B
:10100000C4F880127E2101EA400040F0800004F51F
:101010002074FFF7B5FFFFF7DBFF0121216010BD52
:1010200070B50C460546FFF7E8FF40EA0401284684
:10103000BDE87040CEE770B50C460546FFF7DDFF12
:1010400020EA04012846BDE87040C3E710B514202B
:10105000FFF7D3FF800704D10321BDE8104014201F
:10106000DEE710BD03211420E5E770B5AF4C012584
:10107000C4F89052284604F5247403F069F900205E
:101080002060012003F064F92560012003F060F97D
:10109000BDE870400F2101209CE710B5FFF73AFF33
:1010A000FFF7E3FF8D212A20FFF794FF3E212B203D
:1010B000FFF790FF32212D20FFF78CFF00212C201D
:1010C000FFF788FF40211520FFF784FF3D21112005
:1010D000FFF780FF00210120FFF77CFFBDE81040F3
:1010E000B4E72DE9FF5F0025DDF838B017468A46E2
:1010F00080464FF002092E460C2805D0B8F10E0F9D
:1011000004D11225102601E07725302645F0800114
:101110000220FFF75FFF80210420FFF78CFF802172
:101120000A20FFF77DFF00210120FFF753FF002475
:1011300006E01AF804100920FFF74CFF641CA4B263
:10114000BC42F6D341460120FFF744FFB8F10C0F33
:1011500003D180210D20FFF763FF42F210740420B9
:10116000FFF74BFF641E24040746240C03D0F80746
:1011700001D13742F3D080210D20FFF75CFF8CB303
:101180000620FFF73AFF10F01B0F01D0022028E0E5
:10119000B8F10C0F24D10A20FFF72FFF05460C20D1
:1011A000FFF72BFF10F007004FEAC50104D0083904
:1011B0000844ABF8000001E0ABF8001025B1122D97
:1011C00000D91225002409E00125FBE70920FFF7DB
:1011D00014FF014603980155641CA4B2AC42F5D338
:1011E0000020814680210C20FFF7F4FE0021012021
:1011F000FFF7F0FE04B04846BDE8F09F7CB50C4612
:10120000054607210D20FFF7E5FE257001A82346BE
:101210000090012219460C20FFF763FF18B9BDF8B2
:101220000410102900D002207CBD7CB505460821A1
:1012300000240846FFF7FFFE80210E20FFF7FBFE8B
:1012400000210D20FFF7C6FE932028702020687033
:1012500001A82B460090022219460C20FFF741FFFF
:1012600006000AD10022A85C521C4440D2B2042AD3
:10127000F9D3A85CA04200D0022680210E20FFF7FF
:10128000CFFE30467CBD2DE9F0410E46074615469F
:1012900004210520FFF7CFFE80210A20FFF7C0FEC2
:1012A00000210120FFF796FE002405E0395D0920AA
:1012B000FFF790FE641CA4B2B442F7D303210120CF
:1012C000FFF788FE4FF47A740520FFF796FE641E40
:1012D0002404240C01D04007F6D52220FFF78DFE10
:1012E00028702120FFF789FE6870BDE8F0410021D9
:1012F00001206FE610B586B093218DF8041070219F
:101300008DF8051000218DF80A1001AA5418435CCD
:10131000A3709DF80A30445C6340491C8DF80A3084
:10132000C9B205E05C000020000802400000414214
:101330000429EBD3072101A8D21DFFF7A4FF082140
:101340000846FFF778FE04A801AB00900922194671
:101350000C20FFF7C6FE18B9BDF81000182802D0FF
:10136000002006B010BD9DF80400FAE730B585B046
:101370008DF804008DF80510002001A9145C0D18EB
:10138000401CC0B2AC700628F8D300200C181A5CC0
:10139000401CC0B222720428F8D304A800900B4667
:1013A0000C220E20FFF79DFE040004D10820FFF759
:1013B00024FE000700D4022405B0204630BD1CB531
:1013C0000C46302121706070A21C02212046FFF7DC
:1013D0005AFF01A823460090042219460C20FFF76B
:1013E00080FE18B9BDF80410902900D002201CBD61
:1013F00070B588B00C46A0218DF8041001AD8DF8B1
:10140000050002212846AA1CFFF73DFF06AE01ABEE
:10141000042219460C200096FFF763FE38BBBDF886
:101420001800042823D19DF8040000F00F000A28BA
:101430001DD10020215C2954401CC0B21028F9D3D2
:1014400005AA102101A8FFF71EFF01AB12221946C1
:101450000C200096FFF745FE48B9BDF81810042986
:1014600005D19DF8041001F00F010A2900D00220D7
:1014700008B070BD0EB550208DF8040000208DF826
:1014800005000DF10602022101A8FFF7FCFE02A8EB
:1014900001AB0090042219460C20FFF722FE0EBD7E
:1014A0002DE9F0410121022000F00FFF012104206D
:1014B00000F029FF2B484021002501600221017125
:1014C0000321417185710126274CC67101462046D2
:1014D00000F0F8FC02220621204600F067FD234CB4
:1014E0000B20234F606042F2CF00208065802146B0
:1014F000384601F0FBF904F10C00602101804680C0
:1015000085810146384601F073FA0121384601F021
:1015100065FA1321384601F084FB12496068091FFF
:101520000860BDE8F08142F21071B1FBF0F00F49A4
:10153000401E42F2CF0248600A8000224A800949D8
:10154000091F086009490A4801F0D0B90549091F77
:101550000968491C41436420B1FBF0F1044801F0E3
:1015600060BB000068000020000402409C1D0020B9
:10157000000800402DE9F0470121022000F0A5FEFF
:101580000121102000F0A1FE614C02200125206005
:101590002571032767710026DFF87891A671E57140
:1015A0002146484600F08EFC4FF4A850206025717B
:1015B0006771DFF86481A671E5712146404600F04D
:1015C00081FCA803206026716771A671E571214630
:1015D000404600F077FC4FF4A84020602671677108
:1015E000A671E5712146484600F06CFC4B48C0F8F6
:1015F00084524B48C0F8A052C0F8A852C0F8B0526C
:10160000BDE8F087454A10B50023C2F8843244484B
:101610000121C0F8A012C0F8A812C0F8B012D0F88A
:101620003842E4B3D2F82842D4B3D2F83042C4B33B
:10163000D2F83842B4B3C2F88412C0F8A032C0F86D
:10164000A812C0F8B012D0F8384264B3D2F82842D9
:1016500054B3D2F8304244B3D2F8384234B3C2F86B
:101660008412C0F8A012C0F8A832C0F8B012D0F8A6
:1016700038427CB3D2F828426CB3D2F830425CB323
:10168000D2F838424CB3C2F88412C0F8A012C0F8A5
:10169000A812C0F8B032D0F8380278B307E011E0F1
:1016A00012E013E014E019E01AE01BE01CE0D2F8AD
:1016B000280230B3D2F8300228B3D2F8380220B36F
:1016C0004E2010BD312010BD322010BD332010BD82
:1016D000412010BD0AE00BE00CE00DE03420F8E7FB
:1016E0003520F6E73620F4E74220F2E73720F0E72E
:1016F0003820EEE73920ECE74320EAE7FFE72A202D
:10170000E7E73020E5E72320E3E74420E1E70000B6
:10171000700000200004024000100240008040429F
:1017200000004242FE4910220A60087103204871FD
:1017300000208871C871FB4800F0C4BB70B501205F
:10174000FFF7F0FFF84C0120C4F89002C4F89402AF
:10175000052004F5247402F0FBFD0025256005201A
:1017600002F0F6FD6560BDE87040052002F0F0BDB6
:1017700070B50120FFF7D6FFEB4C0020C4F89002B3
:10178000C4F89402052004F5247402F0E1FD01255B
:101790006560052002F0DCFD2560BDE87040052095
:1017A00002F0D6BD70B500242046FFF7BBFFDE4D2A
:1017B0000120C5F89402052002F0CAFDD5F81002F8
:1017C00010B1FFF7D5FF01240020C5F894020520D1
:1017D00002F0BEFD204670BD2DE9F041804601209B
:1017E000FFF7A0FFD04E0027C6F89072C6F894729B
:1017F000052002F0ADFD0724012505FA04F010EAEA
:10180000080F02D0C6F8905201E0C6F89072052089
:1018100002F09EFDC6F89452052002F099FDC6F82C
:101820009472052002F094FD641EE6D5BDE8F081B7
:1018300010B50446FFF782FF7820FFF7CDFFFFF7D2
:10184000B1FF0020FFF7C8FFFFF7ACFF2046FFF70E
:10185000C3FFFFF7A7FFBDE8104089E710B50446B6
:10186000FFF76CFF7820FFF7B7FFFFF79BFF4020E3
:10187000FFF7B2FFFFF796FF2046FFF7ADFFFFF738
:1018800091FFBDE8104073E7C0B201B1E6E7CFE7D2
:1018900070B506460025002105F1B000FFF7F4FF02
:1018A00000210846FFF7F0FF00211020FFF7ECFFB2
:1018B000002401213046FFF7E7FF641CE4B2802CCE
:1018C000F7D36D1CEDB2082DE5D370BD002806D00E
:1018D00041F665021146491EFDD1401EFAD17047FE
:1018E00004E00021491CC9B27B29FBD3401EF8D279
:1018F000704710B50A460446002102F1B000FFF718
:10190000C3FF102040EA14100021FFF7BDFF04F0D0
:101910000F00BDE810400021B6E710B500218D2072
:10192000FFF7B2FF00211420FFF7AEFF0021BDE852
:101930001040AF20A8E710B500218D20FFF7A4FFCD
:1019400000211020FFF7A0FF0021BDE81040AE20CD
:101950009AE770B50025002105F1B000FFF794FF6C
:1019600000210846FFF790FF00211020FFF78CFFB1
:10197000002401210020FFF787FF641CE4B2802CC3
:10198000F7D36D1CEDB2082DE5D370BD70B5002501
:10199000002105F1B000FFF777FF00210846FFF7AF
:1019A00073FF00211020FFF76FFF0024012108467C
:1019B000FFF76AFF641CE4B2802CF7D36D1CEDB214
:1019C000082DE5D370BD2DE9F041203A00240F46E3
:1019D0008046D5B27F2803D900208F1C8046FFB2F5
:1019E000102B39460FD0FFF784FF504905EB450017
:1019F00001EB40050121285DFFF746FF641CE4B2BE
:101A0000062CF7D312E7FFF774FF494E04EB0510DD
:101A10000121305CFFF738FF641CE4B2082CF5D3D9
:101A20007F1CF9B24046FFF764FF002404EB051069
:101A300030440121007AFFF727FF641CE4B2082C30
:101A4000F4D3F3E60346012000E05843491EC9B22F
:101A5000FBD270472DE9F05F0027DDF828A01D4676
:101A600091468B4680463C464FEA5A0623E0281BA7
:101A7000401EC1B20A20FFF7E5FFB9FBF0F00A21D2
:101A8000B0FBF1F201FB120027B9691E8C4201DAAA
:101A900038B101273030C2B206FB0480C0B25346D1
:101AA00004E006FB0480C0B2534620225946FFF7EB
:101AB0008AFF641CE4B2AC42D9D3BDE8F09F2DE9A3
:101AC000F041984617460E46044600250DE0434671
:101AD00031462046FFF777FF0834E4B2782C02D96C
:101AE0000024B61CF6B26D1CEDB27A5D002AEED170
:101AF0009CE62DE9F04115460E460746FFF7F9FE34
:101B000007480024083000EB85150121285DFFF708
:101B1000BBFE641CE4B2102CF7D3761CF1B209E0D2
:101B200078000020000C02400080414232AC0008E6
:101B30005AAE00083846FFF7DCFE002428190121C0
:101B400090F82000FFF7A0FE641CE4B2102CF5D33F
:101B50006CE62DE9F0471F4690460E46824600256A
:101B6000DDF8209011E031465046FFF7C2FE5446A2
:101B700007E019F8050001216D1CFFF785FE641CC4
:101B8000E4B24445F5D3761CF6B2BE42EBD3BDE8D1
:101B9000F0872DE9F0470025089E1F461446884629
:101BA0008146B61C14E005FB0690802803D8414608
:101BB000B8F1080F04D9BDE8F04749A008F0E0BB30
:101BC000C0B22246FFF795FF641C6D1CE4B2EDB273
:101BD000BC42E8D9DBE710B50121082000F075FB15
:101BE000444830210160012101710321417100212C
:101BF0008171C1710146404800F064F94FF44870AA
:101C000002F0C5FB0021AE20FFF73EFE0021084692
:101C1000FFF73AFE00211020FFF736FE002140209A
:101C2000FFF732FE0021B020FFF72EFE00218120B9
:101C3000FFF72AFE0021FF20FFF726FE0021A1204A
:101C4000FFF722FE0021A620FFF71EFE0021A8209C
:101C5000FFF71AFE00213F20FFF716FE0021C820E3
:101C6000FFF712FE0021D320FFF70EFE00210846E9
:101C7000FFF70AFE0021D520FFF706FE0021802095
:101C8000FFF702FE0021D820FFF7FEFD002105200E
:101C9000FFF7FAFD0021D920FFF7F6FD0021F12022
:101CA000FFF7F2FD0021DA20FFF7EEFD0021122000
:101CB000FFF7EAFD0021DB20FFF7E6FD00213020E1
:101CC000FFF7E2FD00218D20FFF7DEFD002114204B
:101CD000FFF7DAFD0021BDE81040AF20D4E5000099
:101CE000B3ACB3F6C6C1C4BBB5E3D5F3B7B6CEA7A4
:101CF0000D0A000078000020000C024009488047CF
:101D000009480047FEE7FEE7FEE7FEE7FEE7FEE7DD
:101D1000FEE7FEE7FEE7FEE704480549054A064BF5
:101D2000704700004B0B000889010008303B002081
:101D3000309B0020305B0020305B002028490843A6
:101D400028490860704730B50F23C2780178012513
:101D5000FAB1244A126801F1E02102F4E062C2F50E
:101D6000E062C2F30722C2F10404D3404278A240E9
:101D700084781C401443220181F80024007800F08C
:101D80001F018D404009800000F1E020C0F80051A3
:101D900030BD01F01F0085404809800000F1E020BF
:101DA000C0F8805130BD104A114001430D48001F5A
:101DB000016070470B4A121D0029116801D00143D0
:101DC00000E08143116070474FF0E021042808696A
:101DD00003D020F004000861704740F00400FAE7E7
:101DE0000000FA050CED00E080FFFF1F774910B5F9
:101DF000884206D10121084600F099FA002101200D
:101E00005BE07349884206D10121022000F08FFA7D
:101E10000021022051E06F49884206D101210420AF
:101E200000F085FA0021042047E06B49884206D182
:101E30000121082000F07BFA002108203DE06749DD
:101E4000884206D10121102000F071FA00211020F3
:101E500033E06349884206D10121202000F067FA6F
:101E60000021202029E05F49884206D1012140203D
:101E700000F05DFA002140201FE05B49884206D156
:101E80000121802000F053FA0021802015E05749FD
:101E9000884202D1012184150AE05549884202D1C5
:101EA0000121441504E0534988420AD10121041557
:101EB000204600F03CFA00212046BDE8104000F02A
:101EC00036BA10BDF0B5002201274FF0030C0B68A5
:101ED00007FA02F52B40AB422CD1066853000CFAEE
:101EE00003F4A64306600E79D0F800E09E4046EA6F
:101EF0000E0606600E79012E01D0022E12D18668E0
:101F0000A64386604E79D0F808E09E4046EA0E0669
:101F100086604668AE43466045688E799640B6B2A4
:101F200035434560C568A543C560CC799C40C3680E
:101F30001C43C460521C102AC9D3F0BD4FF6FF7178
:101F400001600021017141718171C171704708B553
:101F500041F480320092C261C1610099C161C169DE
:101F6000C069009008BD0246002012690A4200D0F4
:101F700001207047006980B2704702460020526914
:101F80000A4200D001207047406980B27047018347
:101F90007047418370470AB101837047418370479E
:101FA0004161704742694A40426170474B07DB0E0E
:101FB0009A40C90810B500EB8100016A0F249C40CB
:101FC000A1430162016A1143016210BD0000024099
:101FD0000004024000080240000C024000100240D1
:101FE0000014024000180240001C02400020024081
:101FF0000024024000280240F848016841F0010135
:102000000160F64A0021083211600268F44B1A4060
:102010000260031DF34A1A60F04BF34A84331A60DE
:10202000F04A103A1B1D1A60026822F480220260F6
:10203000EA480C300160181D01607047E749002232
:10204000891C0A7008707047024600205109012956
:102050000CD002290CD0E1497431096802F01F024A
:10206000012393400B4200D001207047DB49F4E785
:10207000DA497031F1E718B500204FF4A044009020
:102080003120FFF7E1FF0099491C0091A14201D0E6
:102090000028F5D03120FFF7D7FF002800D001201D
:1020A00018BDCE4A116821F0F80141EAC000106065
:1020B0007047CE4908607047C849002270310A70E5
:1020C0000A70012802D0042801D105200870704749
:1020D000C7490860704741EA82115A0810B5C54BDC
:1020E000029C03EB02421143014341EA0460BB49F5
:1020F000091D086010BDBD4908667047800140EAAF
:102100000170B649843108607047B84988667047E5
:10211000800140EA0160B14940EA027088310860FC
:102120007047B24908677047B049C8647047AB4B05
:1021300008331A68084322F0EC62104318607047B5
:10214000A64B08331A68084322F0784210431860FF
:102150007047A24A0832116821F00301014311605F
:1021600070479E480830006800F00C0070479B4A9A
:102170000832116821F0F001014311607047974A5D
:102180000832116821F4E051014311607047934A0D
:102190000832116821F4604141EAC00010607047C4
:1021A00070B58E4B08331968934C11F00C0104D0B4
:1021B0006610042903D0082903D004601BE00660E0
:1021C00019E0864A121D1168C1F38055116801F0AB
:1021D0003F0115B1B6FBF1F101E0B4FBF1F1146878
:1021E0001268C4F388146143C2F30142521C5200C6
:1021F000B1FBF2F1016019680F2202EA11117F4A66
:10220000545C0168E14041601C68072505EA94249C
:10221000145D21FA04F484601B6805EA5333D25C30
:10222000D140C16070BDC0F30121032908D16B4BBF
:1022300008331968724A21F4F81102400A431A60FF
:10224000664970310A68C0F30B0002430A607047A8
:1022500067494439086070476549403908607047EC
:102260006249C1F85C0170475C4A8C321168401EBB
:1022700021F01F01014311607047584A8C321168E8
:102280006FF0FF0321F4F85103EB002008431060C6
:102290007047524A8C32116821F440110143116099
:1022A00070474E4A8C32116821F44001014311609D
:1022B00070474A4A8C32116821F440310143116061
:1022C00070475049C1F8E0017047444A3032002954
:1022D000116801D0014300E08143116070473F4A1B
:1022E00034320029116801D0014300E081431160BC
:1022F00070473A4A38320029116801D0014300E0A2
:10230000814311607047354A40320029116801D07D
:10231000014300E0814311607047304A4432002994
:10232000116801D0014300E08143116070472B4ADE
:1023300010320029116801D0014300E0814311608F
:102340007047264A14320029116801D0014300E089
:10235000814311607047214A18320029116801D069
:10236000014300E08143116070471C4A203200297C
:10237000116801D0014300E0814311607047174AA2
:1023800024320029116801D0014300E0814311602B
:102390007047124A50320029116801D0014300E011
:1023A0008143116070470D4A54320029116801D0F1
:1023B000014300E0814311607047084A5832002908
:1023C000116801D0014300E0814311607047034A66
:1023D00060320029116817D0014316E0003802402E
:1023E000FFFFF6EA103000240030002000004742D2
:1023F000800E47420000FFFF0024F400800100200F
:10240000FFFCFF0F00104742814311607047194ADB
:102410000029116801D0014300E081431160704739
:1024200014490C310128086803D020F00800086026
:10243000704740F00800FAE70E4A573A0029117831
:1024400001D0014300E0814311707047094810300A
:10245000016841F08071016070470146054A002023
:10246000583A12680A4200D0012070470149563993
:102470000870704764380240CD4910B5884206D1D3
:1024800001211020FFF77BFF0021102020E0C94927
:10249000884202D101214C0429E0C749884202D177
:1024A00001218C0423E0C549884202D10121CC04DA
:1024B0001DE0C349884202D101210C0517E0C14942
:1024C000884209D101212020FFF759FF0021202057
:1024D000BDE81040FFF753BFBB49884202D101213C
:1024E0008C0704E0B94988420AD1012144052046FD
:1024F000FFF73BFF2046BDE810400021FFF735BF46
:1025000010BD7FB50446008A0D46C98820F44050AE
:1025100001432182A08941F20C618843A9882A895C
:1025200011436A8902431143A181A08A20F44071BA
:10253000A8890843A0826846FFF732FE9C4884427F
:1025400002D0A048844201D1039800E00298A189FA
:10255000090400EBC00101EB0010296801D5490016
:1025600000E08900B0FBF1F06422B0FBF2F1090158
:102570000B096FF018056B4300EB8300A3891D0462
:102580004FF0320306D503EBC000B0FBF2F000F0D1
:10259000070005E003EB0010B0FBF2F000F00F00C5
:1025A000084320817FBD4FF41651016000218180D6
:1025B000C18001810C2242818181704710B5028A5D
:1025C0004C8822F470630A8822438C88C9880C43A3
:1025D00022431A43028210BD002101804180818084
:1025E000C18070470029818902D041F4005101E087
:1025F00021F4005181817047028B02F47F420283F3
:10260000028B0A43028370470029818902D041F47A
:10261000004101E0C1F30E01818170470029818AE8
:1026200002D041F4006101E021F400618182704731
:10263000C1F30801818070478088C0F308007047AB
:10264000028A22F00F020282028A0A430282704743
:102650000029818902D041F0020101E021F002014C
:1026600081817047828922F40062828182890A43D3
:1026700082817047028A22F020020282028A0A4383
:10268000028270470029018A02D041F4804101E0B2
:1026900021F4804101827047818941F001018181EB
:1026A00070470029818A02D041F0080101E021F041
:1026B000080181827047028BD2B20283028B42EA08
:1026C0000121018370470029818A02D041F0200155
:1026D00001E021F02001818270470029818A02D027
:1026E00041F0100101E021F0100181827047828ADF
:1026F00022F004028282828A0A4382827047002981
:10270000818A02D041F0020101E021F002018182C0
:102710007047002A828A01D00A4300E08A438282FD
:10272000704710B5C1F3421301F01F040121A1400D
:10273000012B07D0022B07D01430002A026805D0E5
:102740000A4304E00C30F8E71030F6E78A430260F1
:1027500010BD0246002012880A4200D001207047B6
:10276000C9430180704770B501F01F0501260024A0
:10277000C1F3421306FA05F2012B0FD0022B0FD042
:10278000838A4FEA11210088134206FA01F600EA13
:10279000060001D000B10124204670BD8389F0E716
:1027A000038AEEE70A0A01219140C943018070477C
:1027B000001001400044004000480040004C004030
:1027C000005000400014014000780040007C0040B0
:1027D000FE4910B5884206D101210846FFF7CFFD1A
:1027E000002101205BE0B0F1804F09D0F849884218
:1027F0000DD101210220FFF7B8FD0021022070E079
:1028000001210846FFF7B1FD0021012069E0F149EF
:10281000884206D101210420FFF7A7FD00210420F2
:102820005FE0ED49884206D101210820FFF79DFDB8
:102830000021082055E0E949884206D101211020F5
:10284000FFF793FD002110204BE0E549884206D1B7
:1028500001212020FFF789FD0021202041E0E149EE
:10286000884206D101210220FFF789FD00210220C4
:1028700015E0DD49884202D101210C040AE0DB4960
:10288000884202D101214C0404E0D94988420AD18E
:1028900001218C042046FFF772FD00212046BDE88F
:1028A0001040FFF76CBDD349884206D1012140207A
:1028B000FFF75BFD0021402013E0CF49884206D19D
:1028C00001218020FFF751FD0021802009E0CB4944
:1028D00088420AD1841501212046FFF746FD0021D8
:1028E0002046BDE81040FFF740BD10BD30B502885E
:1028F000B64CBC4DA0420DD0A8420BD0B0F1804FD9
:1029000008D0B34B984205D0B24B984202D0B24B9C
:10291000984203D122F070034A881A43AF4B984281
:1029200006D0AF4B984203D022F440730A891A4371
:1029300002804A68C2620A880285A04201D0A84289
:1029400001D1897A01860121818230BD4FF0FF31AA
:1029500041600021018001814180817270470185C1
:1029600082827047028822F070020A430280704718
:1029700041627047C1627047406A7047008D70477E
:102980000029018802D041F0020101E021F002019A
:10299000018070470029018802D041F0040101E064
:1029A00021F00401018070470029018802D041F024
:1029B000800101E021F0800101807047028822F04F
:1029C0000802028002880A4302807047028822F4CB
:1029D0004072028002880A43028070470029018801
:1029E00002D041F0010101E021F0010101807047B6
:1029F00030B5028C22F001020284028C8388048BA1
:102A000022F0020224F073050C882C438D891543B3
:102A10004A882A436D4DA84202D0724DA8420DD17A
:102A200022F00805CA8923F440732A4322F00405E2
:102A30008A882A430D8A1D434B8A2B438380048353
:102A400089684163028430BD70B5028C22F01002A7
:102A50000284028C8388048B0D8824F4E6464FF6AA
:102A6000FF7404EA052535438E8922F0200204EA2A
:102A7000061616434A8804EA02123243534EB04205
:102A800002D0584EB04215D122F08006CA8923F4F4
:102A9000406304EA0212324322F040068A8804EAC4
:102AA000021232430E8A04EA86061E434B8A04EA67
:102AB000830333438380058389688163028470BD07
:102AC00070B5028C22F480720284028C8388848B1D
:102AD0000D8824F0730425438E894FF6FF7422F489
:102AE000007204EA062616434A8804EA02223243A8
:102AF000364EB04202D03B4EB04215D122F40066B1
:102B0000CA8923F4405304EA0222324322F4806645
:102B10008A8804EA022232430E8A04EA06161E4319
:102B20004B8A04EA03133343838085838968C16336
:102B3000028470BD70B5028C22F480520284058C30
:102B40008288838B0C8823F4E6464FF6FF7303EAF2
:102B50000424344325F400568D8903EA05353543B2
:102B60004E8803EA06362E43184DA84202D01D4D6A
:102B7000A84205D122F480450A8A03EA82122A4338
:102B80008280848389680164068470BD002101808D
:102B90004180818081608181C18101824182704751
:102BA00030B50124058C00F118038C40A543058441
:102BB00031B308292CD0091FC1F34E001844016815
:102BC00048F6FF731940016001681AE000000140F7
:102BD0000004004000080040000C004000100040CD
:102BE0000014004000040140004001400044014046
:102BF0000048014000180040001C00400020004038
:102C000006E04FF6FF7303EA02221143016030BD74
:102C100003EB510001684FF68F73194001600168A2
:102C2000F3E74163704781637047C1637047016494
:102C30007047028B22F070020A4302837047028BB6
:102C40004FF6FF7322F4E04203EA012111430183AE
:102C50007047828B22F070020A4382837047828B16
:102C60004FF6FF7322F4E04203EA0121114381830E
:102C70007047028B22F008020A4302837047028BDE
:102C80004FF6FF7322F4006203EA0121114301832E
:102C90007047828B22F008020A4382837047828B3E
:102CA0004FF6FF7322F4006203EA0121114381838E
:102CB0007047028B22F004020A4302837047028BA2
:102CC0004FF6FF7322F4806203EA0121114301836E
:102CD0007047828B22F004020A4382837047828B02
:102CE0004FF6FF7322F4806203EA012111438183CE
:102CF0007047028B22F080020A4302837047028BE6
:102D00004FF6FF73C2F30E0203EA01211143018360
:102D10007047828B22F080020A4382837047828B45
:102D20004FF6FF73C2F30E0203EA012111438183C0
:102D30007047028C22F002020A4302847047028C20
:102D400022F008020A4302847047028C4FF6FF7398
:102D500022F0200203EA0111114301847047028C22
:102D60004FF6FF7322F0800203EA01111143018440
:102D70007047028C4FF6FF7322F4007203EA0121C0
:102D8000114301847047028C4FF6FF7322F40062F6
:102D900003EA0121114301847047028C4FF6FF734F
:102DA00022F4005203EA013111430184704710B547
:102DB0000123048C8B409C430484038C8A4013437E
:102DC000038410BD10B50423048C8B409C43048401
:102DD000038C8A401343038410BD828B22F440622B
:102DE0008283828B4FF6FF7303EA01210A438283B9
:102DF0007047828B22F00C028283828B0A4382838B
:102E00007047028B22F440620283028B4FF6FF73FD
:102E100003EA01210A4302837047F0B5048C24F0D1
:102E200010040484078B068C4FF6FF7404EA011526
:102E300027F4734704EA0331394304EA02220A43C0
:102E400026F0A001294341F0100102830184F0BD66
:102E5000028B22F00C020283028B0A43028370472A
:102E60002DE9F0410C460E884988A2882389054641
:102E70000EB3042E26D0082E2E8C4FF6FF7028D0CD
:102E800026F480562E84AF8B2E8C00EA022200EAB4
:102E9000013127F473473A4300EA0330104326F424
:102EA00020420A4342F48051A8832984E1882846BD
:102EB000BDE8F04191E700F062F9E1882846BDE8FD
:102EC000F041C5E7FFF7A9FFE1882846BDE8F041DA
:102ED00097E726F480762E84AF8B2E8C00EA0121B2
:102EE00000EA0310104327F0F307384326F420626A
:102EF0000A4342F48071A8832984E1882846BDE80A
:102F0000F04176E700210180418001228280C1806A
:102F1000018170472DE9F0410C460026498807469B
:102F2000012501B90226A288012A00D102252088A4
:102F300023890028384610D0FFF76FFFE188384614
:102F4000FFF75FFF23892A463146384600F017F91C
:102F5000E1883846BDE8F0417AE700F010F9E188F1
:102F60003846FFF775FF23892A4631463846FFF772
:102F700054FFE1883846BDE8F04142E7406B7047B6
:102F8000806B7047C06B7047006C704710B50A8843
:102F90004B88CC881A438B8823431A430B891A43E6
:102FA0004B8989891A430A43A0F8442010BD0021A7
:102FB000018041808180C180018141818181704790
:102FC000002930F8441F02D041F4004101E0C1F370
:102FD0000E01018070470029818802D041F0040170
:102FE00001E021F00401818070470029818802D02E
:102FF00041F0010101E021F0010181807047002AC8
:10300000828901D00A4300E08A438281704781822D
:10301000704702460020128A0A4200D00120704701
:10302000C9430182704702460020138A92890B42ED
:1030300002EA010202D0002A00D001207047C943F1
:10304000018270471143A0F848107047002A828916
:1030500001D00A4300E08A438281704700298188B9
:1030600002D041F0080101E021F0080181807047A1
:10307000018921F0070101817047028922F0700265
:103080000A430281704700B50346FFF7F6FF18892F
:1030900040F00700188100BD70B516460D46602946
:1030A00004464FF0010231460AD000F068F8294684
:1030B0002046FFF7E2FF208940F00700208170BD25
:1030C000FFF7ABFEF3E730B504894FF6FF7505EA6D
:1030D00003231343E4B20B432343038130BD10B5F4
:1030E0000446FFF7F0FF208940F07700208110BDF3
:1030F00010B50446FFF7E7FF208940F480402081A7
:1031000010BD828822F07002828082880A43828009
:103110007047028922F00702028102890A43028174
:103120007047028922F08002028102890A430281EB
:10313000704770B50589048B068C25F007050D4393
:103140004FF6FC410C4040F201110C434FF6FF7169
:1031500001EA031126F0220611433143058104835D
:10316000018470BD0029818802D041F0800101E016
:1031700021F0800181807047A0F85010704770B531
:10318000048C24F001040484058B048C4FF6FF7634
:1031900006EA0313134325F0F3052B4324F00A0238
:1031A0000A4342F001010383018470BD18B5002079
:1031B000FA4B0090CA20186053201860F74918395C
:1031C000086820F0A00008604FF400340868009AF6
:1031D00000F02000521C0092A24201D00028F5D03D
:1031E0000868800601D5012000E00020FF21196059
:1031F00018BD08B5E9490020183900900868400654
:1032000012D44FF0FF3008608B130868009A00F06A
:103210004000521C00929A4201D00028F5D0086864
:10322000400601D4002008BD012008BD78B5002467
:10323000DA4ECA2000942546306053203060FFF7F4
:10324000D8FFE0B3D54824380460D44942F20110D5
:10325000203908600B1D186800F0070018608D13F6
:103260001A1D1068009900F00400491C0091A94241
:1032700001D00028F5D01068400729D518681C60D7
:10328000C6494FF6FF7010390860091FC44808602E
:10329000C2480C380460001D0460001D0460BF4873
:1032A00008300460BD4818300460BC482030046019
:1032B000001D04601460B9481C30046000E003E0A5
:1032C000FFF774FF20B10125FF203060284678BD4C
:1032D0000025F9E7B1481838016821F08001016044
:1032E000704770B5AD4E04460025CA2030605320AB
:1032F0003060FFF77EFFA8B1A8481C38016821F0B4
:10330000400101600168226811430160A348A1687F
:10331000143801600168A28841EA02410160FFF7A8
:10332000D9FF0125FF203060284670BD00210160D3
:103330007F214160FF2181607047984908B1FF20DB
:1033400002E0CA20086053200860704770B5934EB1
:1033500005460024CA20306053203060FFF749FF43
:1033600060B18E481C38016815B141F0100101E0D0
:1033700021F010010160FFF7ADFF0124FF20306054
:10338000204670BD854ACA211160532111608349CE
:103390001C390028086802D040F0200001E000F04D
:1033A000DF000860FF20106070472DE9F0410C46F7
:1033B00000267C4F01002078396832464FEA41618F
:1033C00004D000292FDA00F008FC2DE0002900DBF2
:1033D000E27000F0F6FB0504607800F0F2FB45EACD
:1033E0000025A07800F0EDFB0543E07845EA0045B4
:1033F0006A4CCA20206053202060FFF7FAFE68B1B3
:1034000069480540674808380560FFF763FF38687A
:10341000800602D4FFF7CAFE00B10126FF2020601B
:103420003046BDE8F081E270A078217840EA01459D
:103430006078E178000240EA01400543D8E70021C6
:10344000C1700170417081707047020010B557481B
:103450000C460168544801EA0001C1F305402070A0
:10346000C1F30623637001F07F03A3704FF04003A4
:1034700003EA1141E1700AD100F0AFFB20706078DF
:1034800000F0ABFB6070A07800F0A7FBA07010BD4F
:103490004248001D00684349091F0968704770B51C
:1034A0000C460026010060780FD000F096FBA07853
:1034B00000F093FBA078E17840EA0145607821783C
:1034C000000240EA4130054315E0C10603D520F073
:1034D00010000A306070E07800F073FB050460783B
:1034E00000F06FFB45EA0025A07800F06AFB054379
:1034F000207845EA4035294CCA20206053202060BE
:10350000FFF777FE70B12A4805402648001F056086
:10351000FFF7E0FE23480068800602D4FFF746FE6E
:1035200000B10126FF202060304670BD01210170EE
:10353000817041700021C1707047020010B51D48B4
:103540000C4601681A4801EA00014FEA1140E07098
:10355000C1F30423637001F03F03A370C1F3423150
:1035600021700AD100F039FBE070607800F035FB83
:103570006070A07800F031FBA07010BD70B51446EB
:103580000D46084A0021002810684FEA406013D019
:1035900000282ADA207800F020FB27E024280040C9
:1035A000FF007F00082800407F7F7F000028004048
:1035B0003FFFFF0004280040002800DBE170207876
:1035C00000F0FFFA0604607800F0FBFA46EA0026F5
:1035D000A07800F0F6FA0643E07846EA0046207B41
:1035E00000F0EFFA46EA006010E0E170207B00F0A6
:1035F000F4FAA0782178E27840EA01406178090283
:1036000041EA02410843217B40EA0160A168084386
:1036100061680843F849CA220A6053220A60B5F576
:10362000807F04D00A1F1060FF20086070BDF24A3E
:10363000083AF8E70021C1700170417081700122E1
:10364000816002734160704710B514460246B1F5BF
:10365000807F2AD0E848001F0168C1F30540207030
:10366000C1F30623637001F07F03A370402303EAD4
:103670001143E370C1F30563237301F0804301F04C
:103680008031C4E90113002A0ED100F0A6FA20709F
:10369000607800F0A2FA6070A07800F09EFAA07046
:1036A000207B00F09AFA207310BDD3480838D3E786
:1036B00038B50022D04C0092CA22226053222260E8
:1036C000CD4A1C3A0029116802D00143116012E072
:1036D00081431160C84A183A95131168009B01EAAA
:1036E00010215B1C0093AB4201D00029F5D011687A
:1036F00011EA102000D00120FF21216038BD10B553
:10370000BD4BCA241C6053241C601143B0F5807F5C
:1037100005D0B94824300160FF20186010BDB648BC
:103720002030F8E7B0F5807F05D0B348243000683A
:10373000C0F30E007047B0482030F8E7AE4ACA2107
:10374000116053211160AC491C390B6823F0070349
:103750000B600B6803430B60FF2010607047A649A5
:10376000CA220A6053220A60A34A103A1060FF205E
:1037700008607047A0481038006880B2704718B5DC
:1037800000219D4B0091CA211960532119609A496B
:103790001C390028086803D040F48060086014E0F9
:1037A00020F480600860944918398C130868009AE6
:1037B00000F00400521C0092A24201D00028F5D073
:1037C0000868400701D4002000E00120FF211960B3
:1037D00018BD894B10B5CA221A6053221A60864A56
:1037E0001C3A146824F480241460146808430443C9
:1037F0001460FF20186010BD7F481C38006800F47A
:10380000802070477C4B10B5CA221A6053221A6080
:10381000794A1C3A146824F4E004146014680843DC
:1038200004431460FF20186010BDF0B5724D0646C9
:103830000024CA200F46286053202860FFF7D9FCD7
:1038400030B16D483E430C380660FFF743FD01245C
:10385000FF2028602046F0BD70B5674E0546002465
:10386000CA20306053203060FFF7C3FC60B162486B
:103870001C38016815B141F0800101E021F08001A0
:103880000160FFF727FD0124FF203060204670BD56
:10389000594ACA2111605321116057491C39002827
:1038A000086802D040F4000001E020F40000086045
:1038B000FF2010607047504ACA21116053211160E7
:1038C0004D491C390B6823F400230B600B6803433C
:1038D0000B60FF2010607047F0B5474D0023CA24ED
:1038E0002C6053242C60444C183C2668F60308D501
:1038F0004FF400362768FF0303D5B34201D05B1CA9
:10390000F8E72368DB0306D408433B49104318312A
:103910000860012000E00020FF212960F0BD364B47
:1039200010B51C3B1A6840F60804A24342EA0002A4
:1039300009B142F400623048CA210160532101609C
:103940001A60FF21016010BD70B50D462A4914466A
:103950000C310968294A1140274A103212684FF683
:103960003F731A40C1F305432B70C1F306236B70FC
:1039700001F07F03AB70402303EA1141E97000219D
:10398000E170C2F30421617002F03F01A170C2F343
:1039900042312170002817D1287800F01EF92870D4
:1039A000687800F01AF96870A87800F016F9A87025
:1039B000607800F012F96070A07800F00EF9A07045
:1039C000207800F00AF9207070BD0B4814300068B0
:1039D0007047094A1C320029116803D041EA4000AF
:1039E0001060704721EA4000FAE7034A1C320029C0
:1039F000116805D0014304E0242800407F7F7F0048
:103A000081431160704779490A6822F4C0520A6004
:103A10000A6802430A60704774490A6822F4E06247
:103A20000A600A6802430A60704770490A6822F413
:103A3000C0420A600A6802430A6070476B49002866
:103A4000086802D040F0800001E020F080000860AB
:103A5000704766490028086802D020F4004001E061
:103A600040F4004008607047604A08B5103202EB2D
:103A700080000090016008BD5C4908B5103101EB81
:103A800080000090006808BD58490A6822F480321E
:103A90000A600A6802430A60704754490A6822F4BF
:103AA00000320A600A6802430A6070474F490A6898
:103AB00022F480220A600A6802430A60704770B5E7
:103AC0004A4C0022CA231C3C236053232360474BEB
:103AD000343B1D682D0707D59E141D682D0703D59F
:103AE000B24201D0521CF8E71A6812070DD43F4ABF
:103AF000383A1268D20608D401433C4814380160B1
:103B0000FFF754FB10B1012000E00020FF212160ED
:103B100070BD30B5354DCA221C3D2A6053222A6043
:103B2000324C20F00402383C0029304B216800F070
:103B3000040004D0114321601968014303E091435C
:103B40002160196881431960FF20286030BD02465A
:103B50002649002034390968254B1940114200D00C
:103B60000120704780B240F08000C1431F483438C4
:103B7000026802F080021143016070471B4A002175
:103B8000126802F00403194A383A126803EAD03383
:103B900002401A43174B1B6803EA101003D00004BD
:103BA000000C00D0012108467047C0F30F1040F010
:103BB0008000C1430F48026802F080021143016097
:103BC0007047002103E0491C0A38C9B2C0B20A2874
:103BD000F9D2090740EA11607047010901EB810140
:103BE00000F00F0000EB4100C0B2704740280040D9
:103BF0007F3F01000C28004010B501210C07204632
:103C0000FEF7B3FB2046BDE810400021FEF7ADBB38
:103C1000404908627047404A116821F0E0010143C1
:103C2000116070473B49086170473A49C1F8A000EC
:103C300070473849C1F8A4007047374A116821F429
:103C4000404101431160704732490864704731496F
:103C50004864704730490028086802D040F440208A
:103C600001E020F44020086070472A4900B101209B
:103C7000C8627047274900B1012088627047254912
:103C800048627047244B10B51A6840F60344A243BB
:103C900002431A602148026842F0040202600129CE
:103CA00005D020BF016821F00401016010BD30BFC4
:103CB000F8E7194B10B51A6840F60344A2430243D3
:103CC0001A601648026842F004020260012905D019
:103CD00020BF016821F00401016010BD30BFF8E78A
:103CE0000D48016841F0020101600C48016841F093
:103CF0000401016030BF7047074A01460020526846
:103D00000A4200D00120704703490A6842EA800055
:103D10000860704700000E420070004010ED00E0A7
:103D2000354900200860091D0860091D0860091D4B
:103D300008603149314814310860704730B52E4A67
:103D40008379016853B313688B431360111D0B68AB
:103D50000468A3430B60017911440B680468234392
:103D60000B60254B083319680468A14319601C1DBA
:103D700021680568A94321604179102905D01144C3
:103D80000A68006802430A6030BD1968026811437E
:103D90001960216800680143216030BD007910443A
:103DA00002688A43026030BD0021016001710C226B
:103DB000427181717047104910310A6802430A60EC
:103DC000704701460C4A0020143212680A4200D0A3
:103DD0000120704708491431086070470146064ABF
:103DE0000020143212680A4200D0012070470249B4
:103DF0001431086070470000003C0140FFFF7F0065
:103E0000F94908707047F8490028086802D040F462
:103E1000807001E020F4807008607047F24900284B
:103E2000086802D040F4007001E020F400700860DF
:103E30007047ED490028086802D040F4806001E036
:103E400020F4806008607047E748016841F4006131
:103E500001607047E448016841F480510160704797
:103E6000E14810300068002805DADF48DF49001D0E
:103E70000160DF4901607047DB481030016841F0A4
:103E8000004101607047D84909200C310A68D2030B
:103E900001D5012070470A68D20601D50620704777
:103EA0000A68D20501D5022070470A6812F0EF0FA8
:103EB00001D00720704709688907FBD508207047A3
:103EC00008B509208DF80000FFF7DDFF8DF8000030
:103ED0009DF800000128F7D09DF8000008BD70B5DE
:103EE0000646002529B1012928D0022929D04FF4FE
:103EF0004075FFF7E5FF09281FD1BB4C103420683F
:103F000020F440702060206828432060206820F062
:103F1000F8002060206846F0020108432060206815
:103F200040F480302060FFF7CBFF216821F00201D0
:103F30002160216821F0F801216070BD4FF4807587
:103F4000D7E74FF40075D4E730B504460025FFF7F6
:103F5000B7FF2CB1012C1DD0022C1ED04FF44075A0
:103F6000092816D1A04C1034206820F4407020603D
:103F7000206828432060206840F00400206020680A
:103F800040F480302060FFF79BFF216821F004019E
:103F9000216030BD4FF48075E2E74FF40075DFE734
:103FA00030B504460025FFF78BFF2CB1012C1DD046
:103FB000022C1ED04FF44075092816D18A4C1034BB
:103FC000206820F44070206020682843206020682A
:103FD00040F004002060206840F480302060FFF74B
:103FE0006FFF216821F00401216030BD4FF480751E
:103FF000E2E74FF40075DFE730B504460025FFF730
:104000005FFF2CB1012C1DD0022C1ED04FF4407547
:10401000092816D1744C1034206820F440702060B8
:10402000206828432060206840F400402060206819
:1040300040F480302060FFF743FF216821F4004105
:10404000216030BD4FF48075E2E74FF40075DFE783
:10405000F0B516461F460546FFF732FF092815D171
:10406000614C1034206820F440702060206840F4D7
:1040700040702060206840F0010020602E606F607A
:10408000FFF71EFF216821F001012160F0BD70B52E
:104090000D460646FFF714FF092814D1524C103480
:1040A000206820F440702060206840F40070206098
:1040B000206840F0010020603560FFF701FF2168B3
:1040C00021F00101216070BD70B50D460646FFF775
:1040D000F7FE092814D1444C1034206820F44070B5
:1040E0002060206840F480702060206840F001006B
:1040F00020603580FFF7E4FE216821F00101216096
:1041000070BD70B50D460646FFF7DAFE092812D1DC
:10411000354C1034206820F4407020602068206006
:10412000206840F0010020603570FFF7C9FE21686B
:1041300021F00101216070BD2B4814300068C007D8
:1041400005D029482B49083001602B490160704790
:1041500025481430016841F001010160704730B515
:104160000D460446FFF7ACFE092807D11E4816305D
:1041700001880DB1A14300E02143018030BD30B57D
:104180000D460446FFF79CFE092807D116481A3051
:1041900001880DB1A14300E02143018030BD124AE6
:1041A0001732117801F07F0108431070704730B565
:1041B0000D460446FFF784FE092807D10A4A163245
:1041C00010880DB1204300E0A043108030BD30B511
:1041D0000D460446FFF774FE092811D1024A1A322F
:1041E00010885DB120430AE0003C0240230167458E
:1041F000AB89EFCD3B2A19087F6E5D4CA043108040
:1042000030BD10B50446FFF75BFE092801D13548E3
:10421000047010BD70B515460C460646FFF750FEFB
:10422000092808D12F49491E087800F00F000443DF
:104230002C4334430C7070BD2A49491E0A7822F081
:1042400010020A700A7802430A7070472549491E15
:104250000A7822F00C020A700A7802430A7070474A
:104260002048401E017841F00201017028E61D48F7
:10427000401E0068C0F3471070471A48401C008871
:1042800070471848401D008870471648401C008839
:1042900070471448401D0088704712490020097873
:1042A000AA2900D0012070470E48401E007800F077
:1042B0000C0070470B4A521F0029116801D00143BE
:1042C00000E08143116070470146064A0020093A28
:1042D00012680A4200D0012070470249093908607B
:1042E00070470000153C0240374810B5007801289F
:1042F00007D101F0B4FC05F042FBBDE8104001F02D
:10430000B9BC10BD10B56FF00400FDF75DFD2F487E
:104310002F49304B0068314CB0FBF1F2B0FBF1F0AB
:104320001A802D4A1168B4FBF1F1414310684FF433
:104330007A72B2FBF0F058804FF0E020026942F050
:10434000020202614161016941F00101016110BD98
:10435000F8B54FF0E02700247E691E49098800FB6C
:1043600001F5684601F0EDFCB969B8698842FCD0F6
:1043700002D2A1EB000102E0A6EB000211440C44C2
:104380000146AC42F1D3684601F014FDF8BD38B5E2
:1043900004460D48007888B11148007870B90D4D79
:1043A0006888844205D3B4FBF0F06A46082105F022
:1043B00089F96888B4FBF0F100FB11444FF47A707E
:1043C0006043FFF7C5FF38BDDD010020300000204D
:1043D00000127A00900100202CB6000840420F0025
:1043E000DC010020704739490A885206FCD5C2B268
:1043F0008A807047F0B50646012187B00846FDF770
:1044000064FF01211020FDF788FF314D07220921AB
:104410002846FDF7CBFD07220A212846FDF7C6FDF9
:1044200002218DF814108DF815104FF4C06000248F
:1044300004908DF8164001278DF8177004A92846BE
:10444000FDF740FDADF80440ADF80640ADF808407A
:10445000ADF80C400C201D4CADF80A0000966946E2
:104460002046FEF74EF801212046FEF7BBF840211A
:104470002046FEF775F9012240F225512046FEF74D
:1044800050F925208DF8180003208DF819008DF8BB
:104490001A008DF81B7006A8FDF755FC07B0F0BD9B
:1044A00070B501F0DCFB094C40F225552946204649
:1044B000FEF759F930B12046FEF7BEF829462046EE
:1044C000FEF770F9BDE8704001F0D4BB0010014068
:1044D0000000024070B5054601210807FDF713FFF3
:1044E0000120FFF795FB0120FDF7E6FD4120FDF7D8
:1044F000ABFD0028FAD04FF48070FDF794FE012048
:10450000FDF7A6FEFEF752FE73487F2100244160AE
:10451000FF2104608160FEF7E4FE0020FFF72FF921
:104520000420FFF70BF90020FFF719F94FF480463C
:104530003046FFF73AFB01213046FFF7EAFA012047
:10454000FFF71DF936023046FFF751FC634808219A
:1045500006600471417101268671FFF7EFFB5F4829
:104560000321001F017044708470C670FDF7EBFBDF
:10457000002D21D1594820210C38C17046702321CB
:1045800081700421017001460120FEF788FF534825
:1045900040210838C1701721017034214170552124
:1045A000817001460120FEF700FFBDE870404FF426
:1045B00046710020FFF758BA70BD10B50020FFF714
:1045C0005BFAB0F5467F01D0002000E00120BDE895
:1045D00010407FE738B5002401F041FB4FF48045DF
:1045E0002846FFF7CBFA30B101242846FFF7DDFA61
:1045F000A005FFF7FCFB01F03DFB002C05D06B464E
:1046000000220121364802F09BFA38BDB0F5FA6F5E
:1046100001DDA0F5FA600A2190FBF1F201FB120224
:1046200090FBF1F002F00F02000742EA10607047C1
:10463000F8B5002406462BA1009406F029F86D4633
:10464000F8B12AA1304606F01DF828A1002006F096
:1046500019F806F009F8FFF7D9FF2855641C032C58
:10466000F3DB1E489DF800100C38C1709DF8011056
:1046700041709DF80210817001460120FEF70FFF86
:1046800025E01BA1304606F003F810B317A1304611
:1046900005F0F8FF15A1002005F0F4FF05F0E4FF98
:1046A000FFF7B4FF2855641C032CF3DB0B484021B3
:1046B0000838C1709DF8001001709DF8011041701C
:1046C0009DF80210817001460120FEF76EFE002069
:1046D000F8BD0120F8BD0000BC1D0020A401002091
:1046E000A01C002064617465000000002D00000023
:1046F00074696D650000000010B5FFF7B1FB022181
:104700002820FFF7ECFB092803D073A005F038FE42
:10471000FEE7BDE81040FFF7AFBB10B5FFF7A0FB09
:1047200002213020FFF7DBFB092803D06AA005F047
:1047300027FEFEE7BDE81040FFF79EBB2DE9F041E4
:1047400000240E4607462546FFF78AFBDFF89081D6
:10475000B60106EB840101EB08007959FFF797FCDD
:10476000092803D05CA005F00BFEFEE7641C2D1D9C
:10477000102CEED3BDE8F041FFF77EBB2DE9F041F0
:1047800000240E4607462546FFF76AFB06EB860027
:10479000DFF85081860006EB840101EB08007959AF
:1047A000FFF775FC092803D04BA005F0E9FDFEE7F3
:1047B000641C2D1D052CEED3BDE8F041FFF75CBB5A
:1047C00030B50023464C1A46890101EB82052D596C
:1047D000C550521C1B1D102AF7DB30BD30B500231D
:1047E00001EB81013E4C1A46890001EB82052D59EF
:1047F000C550521C1B1D052AF7DB30BD2DE9FC41BD
:10480000984617460E4605460024FFF729FB092166
:104810002846FFF7E3FF34A1284605F039FF28B307
:1048200028683060314E21462846FFF7D7FF2EA179
:10483000284605F02DFF38B104EB84003044296888
:10484000641C0160092CEED33C600A2421462846F2
:10485000FFF7B6FF24A1284605F01AFF10B1641C2B
:104860006E2CF3D3C8F80040BDE8FC81FFF744FF8D
:10487000FFF753FF4021284605F01CFF3020009031
:104880000346024601901AA1284605F085FD09213C
:104890002846FFF773FF28683060E5E7F0B500228F
:1048A000124C164D0EE002EB820323445E5C475C23
:1048B000BE4205D103290BD0491CC9B20429F5D346
:1048C000521CD2B229688A424FF00001EBD300E0BB
:1048D00001210171F0BD00006572726F720000006D
:1048E00000000208000004080A0000006C0200201A
:1048F00025632563256325630A000000040000206A
:104900001FB56846FDF74CFC019804B010BD10B50A
:10491000FFF7F6FF11490A6842F080720A601049F9
:1049200000224A600A6842F001020A60BDE81040B5
:1049300000F076B80A484068704710B50446FFF7A3
:10494000DFFF0021074A0B4605F0A3FC02460B4699
:104950002046002105F09DFC10BD0000FCED00E0AC
:10496000001000E040420F0010B500F0DFF80446F0
:104970001021694800F0D8F92046BDE8104000F049
:10498000D9B8664910B500200860FFF7C0FFBDE840
:104990001040E9E7FEE770B505460C000ED075B192
:1049A00000F0C4F8064610225B49284600F0C4FC1B
:1049B000304600F0BFF80020208070BDFEE70A20DE
:1049C000088070BD70B50C00054612D095B110215D
:1049D00000F0A4FC102810D200F0A8F8064610221F
:1049E00029464D4800F0A8FC304600F0A3F800200E
:1049F00005E0FEE70A20088070BD4FF47A70208041
:104A000070BDFFF797BF7047020004D043480068AD
:104A100010B1002102E0FEE74FF4FA611180704707
:104A20003E490860704710B500F08BF8183810BD8B
:104A300010B500F086F8103810BD00F082B8F0B55F
:104A40000C0E0B0C0D0A0026354AD0F1FF378E41B3
:104A50001BD24FF6FF76D0F1FF378E410AD26FF0AE
:104A60007F45D0F1FF308D4101D2105DF0BDD05CAB
:104A70000830F0BDFF23D0F1FF308B4102D2505DF2
:104A80001030F0BD505C1830F0BD4FF6FF740023BD
:104A9000241A8B4111D26FF07F440023241A8B41DA
:104AA00005D2000E40EA0120105C2030F0BD000C61
:104AB00040EA0140105C2830F0BD0023D0F1FF0433
:104AC0008B4105D2000A40EA0160105C3030F0BD35
:104AD000105C3830F0BD08B100F036B808207047DF
:104AE00008B100F031B81020704708B100F02CB8C0
:104AF0002020704700B550EA01020BD0C243521C7F
:104B0000CB4343F1000310401940FFF798FFC0F179
:104B10003F0000BD402000BDC81D0020AC010020AA
:104B20004AB4000872B6704762B67047EFF310805F
:104B300072B6704780F31088704730BF704720BF4F
:104B40007047B0FA80F0704790FAA0F0B0FA80F0A9
:104B5000704790FAA0F07047A0F14101192902D9DD
:104B60006138192801D80120704700207047A0F152
:104B70004101192905D92039192902D930380928C4
:104B800001D801207047002070476138192801D8EA
:104B900001207047002070474138192801D80120B2
:104BA0007047002070473038092801D8012070472D
:104BB000002070473038072801D8012070470020B6
:104BC0007047A0F13001092905D91139052902D909
:104BD0006138052801D8012070470020704720283F
:104BE00003D0092801D000207047012070472028F9
:104BF0000BD00D2809D00A2807D00C2805D0092889
:104C000003D00B2801D000207047012070472038C6
:104C10005E2801D8012070470020704721385D28A8
:104C200001D80120704700207047A0F120015E29C3
:104C300016D8202814D00D2812D00A2810D00C28FD
:104C40000ED009280CD00B280AD021391A2907D3F5
:104C500020391A2904D330380A2801D3012070479B
:104C60000020704741B2002901DB1F2803D97F28AB
:104C700001D00020704701207047A0F1410119299F
:104C800000D82030C0B27047A0F16101192900D8C6
:104C90002038C0B2704700B50B46FFF7F5FF02465B
:104CA0001846FFF7F1FF824201D1012000BD00202C
:104CB00000BD0000FD48FE490246C0E90012002187
:104CC0008160C160016141618161C1610162016313
:104CD000C162416200F148018163C1634FF48061A8
:104CE00001644164F3480260704710B500231C461C
:104CF000641C41EA0323042CFAD310F0030404D10A
:104D000009E0521E00F8011B641C22B1042CF8D3E8
:104D100001E008C0121F042AFBD202E000F8011BC8
:104D2000521E002AFAD110BD0A460021DDE730B438
:104D3000814202D930BC00F0C5BD10441144401E70
:104D4000491E431A042B28D300F0030301F0030487
:104D5000A34201D1012400E00024F4B1032B07D1C8
:104D600009E05B1E11F8014900F801495BB2521ECF
:104D70000AB1002BF5DAC01EC91E04E051F804394F
:104D800040F80439121F042AF8D2C01CC91C04E0E0
:104D900011F8013900F80139521E002AF8D130BC4F
:104DA000704770B5034662B16BB161B113441144F1
:104DB000012003F0030401F00305AC4205D10125F5
:104DC00004E0012070BD002070BD0025DDB1BCB144
:104DD00013F8015D11F8016DB54200D00020521E9C
:104DE000641E0128F0D1002AF1D109E053F8044DE6
:104DF00051F8045DAC4200D00020121F01280AD1F6
:104E0000042AF3D207E013F8014D11F8015DAC421A
:104E100000D00020521E0128D6D1002AF3D170BD47
:104E200030B5C36BB3FBF2F402FB14340CB1121BAC
:104E300000E00022446C11448C4201D2002030BDBD
:104E40005D18611AC5631A444164104630BD10B53F
:104E5000B0FBF3F403FB140000B1181AB2FBF3F437
:104E600003FB14240CB11B1B00E0002310441A4464
:104E7000491E02FB010010BD2DE9FC5F1F46140016
:104E80008A46834600D101AC0020884E2060FFF79F
:104E90004DFE009053465A460121D6F84480F06BEF
:104EA000FFF7D5FF054642F2E279404506D9009862
:104EB000FFF740FEA5EB0800206012E0524659467D
:104EC0003046FFF7ADFF0600009807D0FFF732FE2F
:104ED00042F2107038803046BDE8FC9FFFF72AFE92
:104EE0002560A7F800900020F6E72DE9F04116466E
:104EF0000D460446FFF71AFE6368996B01B96B4BC8
:104F0000DF6B5C6CFFF716FE012D06D9B7FBF5F0E1
:104F100005FB107000B1281A241A42F2107030807C
:104F20002046BDE8F0810A4601466048DDE7B8B199
:104F3000614A0260002242608260C2600261426196
:104F40008261C2610262826242630263C262426241
:104F50008263C2630264426442F210700880704748
:104F600042F21170FAE72DE9FF4F89B08A46DDE978
:104F70001879044607B906AF002038604946204634
:104F8000FFF7D5FFB9F80010A1F51C50103859D122
:104F90004848006890B10020DFF810810290FFF7C8
:104FA000C5FD05905FEA0A000BD002460B9800266B
:104FB00013184048B3465B1E056848E042F2E771AB
:104FC0003EE0D8F83C1003910423C34645461A46F8
:104FD0000C990398FFF73BFF03990490084408904D
:104FE000DDE916230C99FFF732FF00900099049831
:104FF000464608440290D8F844100191884261D98D
:105000000598FFF797FDDDE901103CE0A86B5045DE
:1050100006D1D5F840C00B998C4501D12E4618E039
:10502000296C0144491E834213D3824203D98B4227
:1050300001D98A4209D80598FFF77CFD42F27F71B9
:10504000A9F800100DB0BDE8F08FAB46ED68002D5B
:10505000DCD136B9C4E90EAA0B9820640B98264619
:10506000606404231A46D8F83C000C99FFF7EFFE61
:105070000490D8F844100191884206D90598FFF7AA
:1050800059FD01990498401A34E0F06B0890DDE96D
:1050900016230C99FFF7DBFE0090716C019188429A
:1050A00010D90598FFF746FD08E00000D81D002044
:1050B00048454150B00100204E4F4E45DDE900010A
:1050C000401A46E00C9804228000014601904046B8
:1050D000FFF7A6FE039008B100201CE0D8F844407A
:1050E0000598FFF727FDBAF1000F07D00198A042FD
:1050F00000D9001B386042F2E27054E00298F6E7F3
:10510000DDE916123046FFF78BFE90B1039941F8A6
:10511000280008F101000C9980468842F0D3A6428D
:1051200020D1C4E902B55FEA0B0016D0CBF80C40E1
:1051300015E0F56B746C0598FFF7FCFC0C98DDE945
:105140001623A0EB08012846FFF781FEA04200D9F4
:10515000001B386042F2D87025E06E4804603DB113
:10516000AC6005E07069C4E90460746100B1046179
:105170006948C4E900060898A061009908980844A5
:10518000401EE061039820620098A0621798606357
:10519000169820630C98E0620C9860620598FFF7FF
:1051A000C9FC42F21070A9F800004BE770B50D463B
:1051B0000446FFF7BBFC646AFFF7BCFC42F21070C8
:1051C0002880204670BD70B515460446FFF7AEFC3A
:1051D000616A49B1E26A91420BD9FFF7ABFC42F236
:1051E00095702880002070BDFFF7A4FC42F2DE70AD
:1051F000F7E7491E6162226A52F82140FFF79AFCE4
:1052000042F210702880204670BD70B514460E46DC
:105210000546FFF78BFCEA6A911B491E42F2957620
:105220008A4202D96A6A8A4204D9FFF783FC26803F
:10523000002070BD2A6A52F82150FFF77BFC42F231
:1052400010702080284670BD2DE9F04116460D46AD
:105250000446FFF76BFCE76A626A8446BA4204D3ED
:10526000FFF768FC42F2DD701EE04FF0000E1346BF
:10527000206A04E050F82310A94205D05B1C9F422D
:10528000F8D8BEF1000F03D050F8221040F82310D8
:10529000D4E9080140F82150606A401C6062604611
:1052A000FFF748FC42F2107030803AE62DE9F041F9
:1052B00015460E4604464FF0FF37FFF737FC02460F
:1052C000E16A606A884205D31046FFF733FC42F278
:1052D000DD701CE04FF0000C05E0236A53F820302D
:1052E000B34205D0401C8142F7D8BCF1000F09D071
:1052F0000C1A1046641EFFF71DFC42F21070288045
:1053000020460EE61046FFF715FC42F28870288012
:10531000384606E6B0010020504F4F4C002201E015
:10532000401C521C18B103780BB18A42F8D31046C6
:1053300070474FF0FF31F1E730B5002811D089B147
:105340000346002405E0491C03F8015B641C4BB1D3
:1053500041B10D780DB19442F5D3944201D20021B0
:10536000197030BD002030BD4FF0FF32E4E730B59A
:10537000002816D0B1B1002A13D0034601E05B1C0F
:1053800010D01C78002CFAD104E0491C03F8015B12
:10539000641C3BB131B10D780DB19442F5D30021BD
:1053A000197030BD002030BD4FF0FF32DFE7F0B59F
:1053B00032B330B111B304460B46401C491C0025E2
:1053C00008E0E9B108784042F0BD401C491C5B1C74
:1053D000641C6D1C26781F78BE4204D11EB110B12A
:1053E00009B19542F1D395420AD0F4B2FAB294428F
:1053F00001D0B01AF0BD1EB10028E2D00078F0BD97
:105400000020F0BD4FF0FF32D1E72DE9F0475FEA11
:10541000020A41D070B181B10446461C0F464D1CB2
:105420000078FFF72AFC81463878FFF726FC4FF01A
:10543000000811E079B3087829E0007821E008F14C
:10544000010814F8010F6D1C761C7F1CFFF715FC7A
:1054500081463878FFF711FC814505D1217819B1D3
:1054600016B10DB1D045EAD3D04515D04946814596
:1054700003D0A9EB0000BDE8F0870800FBD026B1FF
:105480003078BDE8F047FFF7F8BB25B12878FFF783
:10549000F4FB4042EFE7FFE70020ECE74FF0FF327C
:1054A000B3E710B5002812D081B1002303E0401CFF
:1054B00003F101030BD004781CB1944201D08B425C
:1054C000F5D38B4202D2E1B2914200D0002010BD50
:1054D0000A464FF0FF31E4E730B5154604000FD01F
:1054E00071B1491EFFF71AFF20180AD000E0401ED4
:1054F000A04202D00178A942F9D10178A94200D096
:10550000002030BD0A464FF0FF31E5E730B50028F6
:1055100003D00BB1044607E0002030BD8D4200D11E
:1055200022705B1E641CF8D02578002DF5D0002B6E
:10553000F4D130BD4FF0FF33E8E72DE9F0418C4660
:10554000060032D0BCF1000F2FD072B3501C01D036
:10555000511C01E04FF0FF310D4611463046FFF778
:10556000DDFE044629466046FFF7D8FE050014D04C
:10557000A5421AD8301911D01CEB05000ED0671BBC
:105580000024301980462A466146FFF710FF0100CB
:1055900006D00020641C28B106E03046BDE8F0814A
:1055A0000120F7E7BC42ECD909B10020F6E74046FC
:1055B000F4E74FF0FF32C0E72DE9FF5F074611988F
:1055C0000E9D1446894600286CD00026B246B9F1DB
:1055D000000F00D10126A01E232800D3012615B3F9
:1055E0002846FFF714FB01281CD1302D1BD0A5F154
:1055F0003000C1B20F98012802D0A5F1410001E0AE
:10560000A5F16100C0B20A2C02D8A14206D307E07E
:105610000A2903D3A4F10A01884201D2012000E043
:10562000002000B10126119A56BBB846012003E0C4
:10563000B8FBF4F8401CC0B2A045F9D20399012987
:1056400000D0002100EB010CCC4518D84FF0000B26
:105650004B46484500D318464DB1A9EB0000401A0F
:105660004B4610F0FF0F04D0302D04D001E0084469
:10567000C3B2002000E0012082460EB901E00126FD
:105680004B461099D01809B1002101700021401E2D
:1056900004E056B13F2200F80129491C9942F8D391
:1056A0009EB3002004B0BDE8F09F27B919B1039A5A
:1056B000012A16D024E0B7FBF4F204FB1272D2B236
:1056C0000A2A01D2303207E0DDF83CC0BCF1010FFC
:1056D00001D0373200E05732B7FBF4F700F8012968
:1056E000DBE75AEA0B0205D0BAF1000F08D05A1EC8
:1056F000914205D12D2200F801294FF0010BCCE792
:10570000002DCAD000F80159C7E7FFE71198C9E793
:105710007FB50DF1200C9CE870008DE87800002327
:10572000FFF74AFF04B070BD2DE9FF411C46DDE9DB
:105730000B650A9F002802DA4042012300E00023A3
:10574000CDE90047CDE90265FFF736FF04B025E754
:105750002DE9FF5F1E4615465FEA0109824601D129
:105760000DF10809C9F800A00E9808B903A80E9019
:10577000002101705FEA0A0003D0012D01D0242D21
:1057800001D900208EE70446007801E014F8010FEB
:10579000FFF72DFA0128F9D020782B2803D02D28E7
:1057A00005D0002007E04FF0000B641C04E0012E40
:1057B00000D1641C01208346019425B1082D11D02D
:1057C000102D22D112E02078302801D00A251CE0CB
:1057D00014F8010F582803D0782801D0082514E0C8
:1057E00010250CE0207830280ED00EE020783028EC
:1057F0000BD114F8010F582801D0782805D1607812
:10580000FFF7DFF9012800D1641C0026B04600969E
:1058100027783846FFF7ABF9012824D13846FFF73F
:10582000C2F901280CD03846FFF7AFF9012809D09A
:10583000373FF9B2A94216D2B8F1000F04D00EE0FA
:10584000303FF6E7573FF4E71D4850F82500B042D7
:1058500003D306FB05168E4201D24FF001080098D3
:10586000641C0028D4D0B8F1010F01D14FF0FF36ED
:105870000198844202D0C9F8004001E0C9F800A0B4
:105880000E99304681F800B00CE708B5002300936C
:10589000FFF75EFF08BD1CB501AB00930123FFF7C6
:1058A00057FF9DF804204FF0004122B1884200D2FA
:1058B000414208461CBD8842FCD36FF000401CBD2D
:1058C0004CB50008002800D17047002900D170476E
:1058D000002A00D170472DE9F81F00F0030301F002
:1058E0000304A34211D1C3F1040303F00303012B0A
:1058F0001DD3012A00D2F2E011F8014B00F8014B50
:10590000A3F10103A2F10102F1E700F0010301F0AC
:105910000104A34200D094E0012B44D311F8014BC1
:1059200000F8014BA3F10103A2F10102F4E7B2F583
:10593000B47F26D3B1E8F81FA0E8F81FB1E8F81F3C
:10594000A0E8F81FB1E8F81FA0E8F81FB1E8F81FB9
:10595000A0E8F81FB1E8F81FA0E8F81FB1E8F81FA9
:10596000A0E8F81FB1E8F81FA0E8F81FB1E8F81F99
:10597000A0E8F81FB1E8F81FA0E8F81FA2F5B4727C
:10598000D5E7282A06D3B1E8F81FA0E8F81FA2F14E
:105990002802F6E7042A06D351F8043B40F8043BFA
:1059A000A2F10402F6E7202A42D331F8023B20F8A4
:1059B000023B31F8023B20F8023B31F8023B20F871
:1059C000023B31F8023B20F8023B31F8023B20F861
:1059D000023B31F8023B20F8023B31F8023B20F851
:1059E000023B31F8023B20F8023B31F8023B20F841
:1059F000023B31F8023B20F8023B31F8023B20F831
:105A0000023B31F8023B20F8023B31F8023B20F820
:105A1000023B31F8023B20F8023B31F8023B20F810
:105A2000023B31F8023B20F8023BA2F12002BAE728
:105A3000022A06D331F8023B20F8023BA2F102020F
:105A4000F6E7102A42D311F8013B00F8013B11F8A8
:105A5000013B00F8013B11F8013B00F8013B11F854
:105A6000013B00F8013B11F8013B00F8013B11F844
:105A7000013B00F8013B11F8013B00F8013B11F834
:105A8000013B00F8013B11F8013B00F8013B11F824
:105A9000013B00F8013B11F8013B00F8013B11F814
:105AA000013B00F8013B11F8013B00F8013B11F804
:105AB000013B00F8013B11F8013B00F8013B11F8F4
:105AC000013B00F8013BA2F11002BAE7012A06D31C
:105AD00011F8013B00F8013BA2F10102F6E7BDE835
